{
  "contractName": "BCANFT1155RoyaltiesFactory",
  "abi": [
    {
      "inputs": [
        {
          "internalType": "string",
          "name": "uri_",
          "type": "string"
        },
        {
          "internalType": "uint256",
          "name": "royalAmount",
          "type": "uint256"
        },
        {
          "internalType": "address",
          "name": "owner",
          "type": "address"
        }
      ],
      "stateMutability": "nonpayable",
      "type": "constructor"
    },
    {
      "anonymous": false,
      "inputs": [
        {
          "indexed": true,
          "internalType": "address",
          "name": "account",
          "type": "address"
        },
        {
          "indexed": true,
          "internalType": "address",
          "name": "operator",
          "type": "address"
        },
        {
          "indexed": false,
          "internalType": "bool",
          "name": "approved",
          "type": "bool"
        }
      ],
      "name": "ApprovalForAll",
      "type": "event"
    },
    {
      "anonymous": false,
      "inputs": [
        {
          "indexed": true,
          "internalType": "address",
          "name": "previousOwner",
          "type": "address"
        },
        {
          "indexed": true,
          "internalType": "address",
          "name": "newOwner",
          "type": "address"
        }
      ],
      "name": "OwnershipTransferred",
      "type": "event"
    },
    {
      "anonymous": false,
      "inputs": [
        {
          "indexed": true,
          "internalType": "address",
          "name": "operator",
          "type": "address"
        },
        {
          "indexed": true,
          "internalType": "address",
          "name": "from",
          "type": "address"
        },
        {
          "indexed": true,
          "internalType": "address",
          "name": "to",
          "type": "address"
        },
        {
          "indexed": false,
          "internalType": "uint256[]",
          "name": "ids",
          "type": "uint256[]"
        },
        {
          "indexed": false,
          "internalType": "uint256[]",
          "name": "values",
          "type": "uint256[]"
        }
      ],
      "name": "TransferBatch",
      "type": "event"
    },
    {
      "anonymous": false,
      "inputs": [
        {
          "indexed": true,
          "internalType": "address",
          "name": "operator",
          "type": "address"
        },
        {
          "indexed": true,
          "internalType": "address",
          "name": "from",
          "type": "address"
        },
        {
          "indexed": true,
          "internalType": "address",
          "name": "to",
          "type": "address"
        },
        {
          "indexed": false,
          "internalType": "uint256",
          "name": "id",
          "type": "uint256"
        },
        {
          "indexed": false,
          "internalType": "uint256",
          "name": "value",
          "type": "uint256"
        }
      ],
      "name": "TransferSingle",
      "type": "event"
    },
    {
      "anonymous": false,
      "inputs": [
        {
          "indexed": false,
          "internalType": "string",
          "name": "value",
          "type": "string"
        },
        {
          "indexed": true,
          "internalType": "uint256",
          "name": "id",
          "type": "uint256"
        }
      ],
      "name": "URI",
      "type": "event"
    },
    {
      "inputs": [
        {
          "internalType": "address",
          "name": "account",
          "type": "address"
        },
        {
          "internalType": "uint256",
          "name": "id",
          "type": "uint256"
        }
      ],
      "name": "balanceOf",
      "outputs": [
        {
          "internalType": "uint256",
          "name": "",
          "type": "uint256"
        }
      ],
      "stateMutability": "view",
      "type": "function"
    },
    {
      "inputs": [
        {
          "internalType": "address[]",
          "name": "accounts",
          "type": "address[]"
        },
        {
          "internalType": "uint256[]",
          "name": "ids",
          "type": "uint256[]"
        }
      ],
      "name": "balanceOfBatch",
      "outputs": [
        {
          "internalType": "uint256[]",
          "name": "",
          "type": "uint256[]"
        }
      ],
      "stateMutability": "view",
      "type": "function"
    },
    {
      "inputs": [
        {
          "internalType": "address",
          "name": "account",
          "type": "address"
        },
        {
          "internalType": "address",
          "name": "operator",
          "type": "address"
        }
      ],
      "name": "isApprovedForAll",
      "outputs": [
        {
          "internalType": "bool",
          "name": "",
          "type": "bool"
        }
      ],
      "stateMutability": "view",
      "type": "function"
    },
    {
      "inputs": [],
      "name": "owner",
      "outputs": [
        {
          "internalType": "address",
          "name": "",
          "type": "address"
        }
      ],
      "stateMutability": "view",
      "type": "function"
    },
    {
      "inputs": [],
      "name": "renounceOwnership",
      "outputs": [],
      "stateMutability": "nonpayable",
      "type": "function"
    },
    {
      "inputs": [
        {
          "internalType": "uint256",
          "name": "tokenId",
          "type": "uint256"
        },
        {
          "internalType": "uint256",
          "name": "value",
          "type": "uint256"
        }
      ],
      "name": "royaltyInfo",
      "outputs": [
        {
          "internalType": "address",
          "name": "receiver",
          "type": "address"
        },
        {
          "internalType": "uint256",
          "name": "royaltyAmount",
          "type": "uint256"
        }
      ],
      "stateMutability": "view",
      "type": "function"
    },
    {
      "inputs": [
        {
          "internalType": "address",
          "name": "from",
          "type": "address"
        },
        {
          "internalType": "address",
          "name": "to",
          "type": "address"
        },
        {
          "internalType": "uint256[]",
          "name": "ids",
          "type": "uint256[]"
        },
        {
          "internalType": "uint256[]",
          "name": "amounts",
          "type": "uint256[]"
        },
        {
          "internalType": "bytes",
          "name": "data",
          "type": "bytes"
        }
      ],
      "name": "safeBatchTransferFrom",
      "outputs": [],
      "stateMutability": "nonpayable",
      "type": "function"
    },
    {
      "inputs": [
        {
          "internalType": "address",
          "name": "from",
          "type": "address"
        },
        {
          "internalType": "address",
          "name": "to",
          "type": "address"
        },
        {
          "internalType": "uint256",
          "name": "id",
          "type": "uint256"
        },
        {
          "internalType": "uint256",
          "name": "amount",
          "type": "uint256"
        },
        {
          "internalType": "bytes",
          "name": "data",
          "type": "bytes"
        }
      ],
      "name": "safeTransferFrom",
      "outputs": [],
      "stateMutability": "nonpayable",
      "type": "function"
    },
    {
      "inputs": [
        {
          "internalType": "address",
          "name": "operator",
          "type": "address"
        },
        {
          "internalType": "bool",
          "name": "approved",
          "type": "bool"
        }
      ],
      "name": "setApprovalForAll",
      "outputs": [],
      "stateMutability": "nonpayable",
      "type": "function"
    },
    {
      "inputs": [
        {
          "internalType": "address",
          "name": "newOwner",
          "type": "address"
        }
      ],
      "name": "transferOwnership",
      "outputs": [],
      "stateMutability": "nonpayable",
      "type": "function"
    },
    {
      "inputs": [
        {
          "internalType": "uint256",
          "name": "",
          "type": "uint256"
        }
      ],
      "name": "uri",
      "outputs": [
        {
          "internalType": "string",
          "name": "",
          "type": "string"
        }
      ],
      "stateMutability": "view",
      "type": "function"
    },
    {
      "inputs": [
        {
          "internalType": "bytes4",
          "name": "interfaceId",
          "type": "bytes4"
        }
      ],
      "name": "supportsInterface",
      "outputs": [
        {
          "internalType": "bool",
          "name": "",
          "type": "bool"
        }
      ],
      "stateMutability": "view",
      "type": "function"
    },
    {
      "inputs": [
        {
          "internalType": "address",
          "name": "to",
          "type": "address"
        },
        {
          "internalType": "uint256",
          "name": "id",
          "type": "uint256"
        },
        {
          "internalType": "uint256",
          "name": "amount",
          "type": "uint256"
        },
        {
          "internalType": "bytes",
          "name": "data",
          "type": "bytes"
        }
      ],
      "name": "mintTo",
      "outputs": [],
      "stateMutability": "nonpayable",
      "type": "function"
    },
    {
      "inputs": [
        {
          "internalType": "address",
          "name": "to",
          "type": "address"
        },
        {
          "internalType": "uint256[]",
          "name": "ids",
          "type": "uint256[]"
        },
        {
          "internalType": "uint256[]",
          "name": "amounts",
          "type": "uint256[]"
        },
        {
          "internalType": "bytes",
          "name": "data",
          "type": "bytes"
        }
      ],
      "name": "mintBatch",
      "outputs": [],
      "stateMutability": "nonpayable",
      "type": "function"
    }
  ],
  "bytecode": "0x60806040523480156200001157600080fd5b5060405162001ff338038062001ff3833981016040819052620000349162000236565b82620000408162000061565b506200004c336200007a565b620000588183620000cc565b5050506200036e565b8051620000769060029060208401906200015d565b5050565b600380546001600160a01b038381166001600160a01b0319831681179093556040519116919082907f8be0079c531659141344cd1fd0a4f28419497f9722a3daafe3b4186f6b6457e090600090a35050565b62030d40811115620001245760405162461bcd60e51b815260206004820152601a60248201527f45524332393831526f79616c746965733a20546f6f2068696768000000000000604482015260640160405180910390fd5b604080518082019091526001600160a01b039092168083526020909201819052600480546001600160a01b031916909217909155600555565b8280546200016b9062000331565b90600052602060002090601f0160209004810192826200018f5760008555620001da565b82601f10620001aa57805160ff1916838001178555620001da565b82800160010185558215620001da579182015b82811115620001da578251825591602001919060010190620001bd565b50620001e8929150620001ec565b5090565b5b80821115620001e85760008155600101620001ed565b634e487b7160e01b600052604160045260246000fd5b80516001600160a01b03811681146200023157600080fd5b919050565b6000806000606084860312156200024c57600080fd5b83516001600160401b03808211156200026457600080fd5b818601915086601f8301126200027957600080fd5b8151818111156200028e576200028e62000203565b604051601f8201601f19908116603f01168101908382118183101715620002b957620002b962000203565b81604052828152602093508984848701011115620002d657600080fd5b600091505b82821015620002fa5784820184015181830185015290830190620002db565b828211156200030c5760008484830101525b8097505050508086015193505050620003286040850162000219565b90509250925092565b600181811c908216806200034657607f821691505b602082108114156200036857634e487b7160e01b600052602260045260246000fd5b50919050565b611c75806200037e6000396000f3fe608060405234801561001057600080fd5b50600436106100e95760003560e01c80634e1273f41161008c578063a22cb46511610066578063a22cb46514610218578063e985e9c51461022b578063f242432a14610267578063f2fde38b1461027a57600080fd5b80634e1273f4146101d5578063715018a6146101f55780638da5cb5b146101fd57600080fd5b80631f7fdffa116100c85780631f7fdffa14610157578063280f4e281461016c5780632a55205a1461017f5780632eb2c2d6146101c257600080fd5b8062fdd58e146100ee57806301ffc9a7146101145780630e89341c14610137575b600080fd5b6101016100fc366004611428565b61028d565b6040519081526020015b60405180910390f35b610127610122366004611468565b610336565b604051901515815260200161010b565b61014a61014536600461148c565b610347565b60405161010b91906114f2565b61016a610165366004611651565b6103db565b005b61016a61017a3660046116ea565b610447565b6101a361018d36600461173f565b50506004546005546001600160a01b0390911691565b604080516001600160a01b03909316835260208301919091520161010b565b61016a6101d0366004611761565b6104ad565b6101e86101e336600461180b565b61054f565b60405161010b9190611911565b61016a61068d565b6003546040516001600160a01b03909116815260200161010b565b61016a610226366004611924565b6106f3565b610127610239366004611960565b6001600160a01b03918216600090815260016020908152604080832093909416825291909152205460ff1690565b61016a610275366004611993565b610702565b61016a6102883660046119f8565b61079d565b60006001600160a01b0383166103105760405162461bcd60e51b815260206004820152602b60248201527f455243313135353a2062616c616e636520717565727920666f7220746865207a60448201527f65726f206164647265737300000000000000000000000000000000000000000060648201526084015b60405180910390fd5b506000908152602081815260408083206001600160a01b03949094168352929052205490565b60006103418261087f565b92915050565b60606002805461035690611a13565b80601f016020809104026020016040519081016040528092919081815260200182805461038290611a13565b80156103cf5780601f106103a4576101008083540402835291602001916103cf565b820191906000526020600020905b8154815290600101906020018083116103b257829003601f168201915b50505050509050919050565b6003546001600160a01b031633146104355760405162461bcd60e51b815260206004820181905260248201527f4f776e61626c653a2063616c6c6572206973206e6f7420746865206f776e65726044820152606401610307565b610441848484846108a4565b50505050565b6003546001600160a01b031633146104a15760405162461bcd60e51b815260206004820181905260248201527f4f776e61626c653a2063616c6c6572206973206e6f7420746865206f776e65726044820152606401610307565b61044184848484610a6a565b6001600160a01b0385163314806104c957506104c98533610239565b61053b5760405162461bcd60e51b815260206004820152603260248201527f455243313135353a207472616e736665722063616c6c6572206973206e6f742060448201527f6f776e6572206e6f7220617070726f76656400000000000000000000000000006064820152608401610307565b6105488585858585610b74565b5050505050565b606081518351146105c85760405162461bcd60e51b815260206004820152602960248201527f455243313135353a206163636f756e747320616e6420696473206c656e67746860448201527f206d69736d6174636800000000000000000000000000000000000000000000006064820152608401610307565b6000835167ffffffffffffffff8111156105e4576105e4611505565b60405190808252806020026020018201604052801561060d578160200160208202803683370190505b50905060005b84518110156106855761065885828151811061063157610631611a4e565b602002602001015185838151811061064b5761064b611a4e565b602002602001015161028d565b82828151811061066a5761066a611a4e565b602090810291909101015261067e81611a7a565b9050610613565b509392505050565b6003546001600160a01b031633146106e75760405162461bcd60e51b815260206004820181905260248201527f4f776e61626c653a2063616c6c6572206973206e6f7420746865206f776e65726044820152606401610307565b6106f16000610dd2565b565b6106fe338383610e3c565b5050565b6001600160a01b03851633148061071e575061071e8533610239565b6107905760405162461bcd60e51b815260206004820152602960248201527f455243313135353a2063616c6c6572206973206e6f74206f776e6572206e6f7260448201527f20617070726f76656400000000000000000000000000000000000000000000006064820152608401610307565b6105488585858585610f31565b6003546001600160a01b031633146107f75760405162461bcd60e51b815260206004820181905260248201527f4f776e61626c653a2063616c6c6572206973206e6f7420746865206f776e65726044820152606401610307565b6001600160a01b0381166108735760405162461bcd60e51b815260206004820152602660248201527f4f776e61626c653a206e6577206f776e657220697320746865207a65726f206160448201527f64647265737300000000000000000000000000000000000000000000000000006064820152608401610307565b61087c81610dd2565b50565b60006001600160e01b0319821663152a902d60e11b14806103415750610341826110cf565b6001600160a01b0384166109045760405162461bcd60e51b815260206004820152602160248201527f455243313135353a206d696e7420746f20746865207a65726f206164647265736044820152607360f81b6064820152608401610307565b81518351146109665760405162461bcd60e51b815260206004820152602860248201527f455243313135353a2069647320616e6420616d6f756e7473206c656e677468206044820152670dad2e6dac2e8c6d60c31b6064820152608401610307565b3360005b8451811015610a025783818151811061098557610985611a4e565b60200260200101516000808784815181106109a2576109a2611a4e565b602002602001015181526020019081526020016000206000886001600160a01b03166001600160a01b0316815260200190815260200160002060008282546109ea9190611a95565b909155508190506109fa81611a7a565b91505061096a565b50846001600160a01b031660006001600160a01b0316826001600160a01b03167f4a39dc06d4c0dbc64b70af90fd698a233a518aa5d07e595d983b8c0526c8f7fb8787604051610a53929190611aad565b60405180910390a46105488160008787878761111f565b6001600160a01b038416610aca5760405162461bcd60e51b815260206004820152602160248201527f455243313135353a206d696e7420746f20746865207a65726f206164647265736044820152607360f81b6064820152608401610307565b33610ae481600087610adb886112c5565b610548886112c5565b6000848152602081815260408083206001600160a01b038916845290915281208054859290610b14908490611a95565b909155505060408051858152602081018590526001600160a01b0380881692600092918516917fc3d58168c5ae7397731d063d5bbf3d657854427343f4c083240f7aacaa2d0f62910160405180910390a461054881600087878787611310565b8151835114610bd65760405162461bcd60e51b815260206004820152602860248201527f455243313135353a2069647320616e6420616d6f756e7473206c656e677468206044820152670dad2e6dac2e8c6d60c31b6064820152608401610307565b6001600160a01b038416610c3a5760405162461bcd60e51b815260206004820152602560248201527f455243313135353a207472616e7366657220746f20746865207a65726f206164604482015264647265737360d81b6064820152608401610307565b3360005b8451811015610d64576000858281518110610c5b57610c5b611a4e565b602002602001015190506000858381518110610c7957610c79611a4e565b602090810291909101810151600084815280835260408082206001600160a01b038e168352909352919091205490915081811015610d0c5760405162461bcd60e51b815260206004820152602a60248201527f455243313135353a20696e73756666696369656e742062616c616e636520666f60448201526939103a3930b739b332b960b11b6064820152608401610307565b6000838152602081815260408083206001600160a01b038e8116855292528083208585039055908b16825281208054849290610d49908490611a95565b9250508190555050505080610d5d90611a7a565b9050610c3e565b50846001600160a01b0316866001600160a01b0316826001600160a01b03167f4a39dc06d4c0dbc64b70af90fd698a233a518aa5d07e595d983b8c0526c8f7fb8787604051610db4929190611aad565b60405180910390a4610dca81878787878761111f565b505050505050565b600380546001600160a01b038381167fffffffffffffffffffffffff0000000000000000000000000000000000000000831681179093556040519116919082907f8be0079c531659141344cd1fd0a4f28419497f9722a3daafe3b4186f6b6457e090600090a35050565b816001600160a01b0316836001600160a01b03161415610ec45760405162461bcd60e51b815260206004820152602960248201527f455243313135353a2073657474696e6720617070726f76616c2073746174757360448201527f20666f722073656c6600000000000000000000000000000000000000000000006064820152608401610307565b6001600160a01b03838116600081815260016020908152604080832094871680845294825291829020805460ff191686151590811790915591519182527f17307eab39ab6107e8899845ad3d59bd9653f200f220920489ca2b5937696c31910160405180910390a3505050565b6001600160a01b038416610f955760405162461bcd60e51b815260206004820152602560248201527f455243313135353a207472616e7366657220746f20746865207a65726f206164604482015264647265737360d81b6064820152608401610307565b33610fa5818787610adb886112c5565b6000848152602081815260408083206001600160a01b038a168452909152902054838110156110295760405162461bcd60e51b815260206004820152602a60248201527f455243313135353a20696e73756666696369656e742062616c616e636520666f60448201526939103a3930b739b332b960b11b6064820152608401610307565b6000858152602081815260408083206001600160a01b038b8116855292528083208785039055908816825281208054869290611066908490611a95565b909155505060408051868152602081018690526001600160a01b03808916928a821692918616917fc3d58168c5ae7397731d063d5bbf3d657854427343f4c083240f7aacaa2d0f62910160405180910390a46110c6828888888888611310565b50505050505050565b60006001600160e01b03198216636cdb3d1360e11b148061110057506001600160e01b031982166303a24d0760e21b145b8061034157506301ffc9a760e01b6001600160e01b0319831614610341565b6001600160a01b0384163b15610dca5760405163bc197c8160e01b81526001600160a01b0385169063bc197c81906111639089908990889088908890600401611adb565b6020604051808303816000875af192505050801561119e575060408051601f3d908101601f1916820190925261119b91810190611b39565b60015b611254576111aa611b56565b806308c379a014156111e457506111bf611b72565b806111ca57506111e6565b8060405162461bcd60e51b815260040161030791906114f2565b505b60405162461bcd60e51b815260206004820152603460248201527f455243313135353a207472616e7366657220746f206e6f6e204552433131353560448201527f526563656976657220696d706c656d656e7465720000000000000000000000006064820152608401610307565b6001600160e01b0319811663bc197c8160e01b146110c65760405162461bcd60e51b815260206004820152602860248201527f455243313135353a204552433131353552656365697665722072656a656374656044820152676420746f6b656e7360c01b6064820152608401610307565b604080516001808252818301909252606091600091906020808301908036833701905050905082816000815181106112ff576112ff611a4e565b602090810291909101015292915050565b6001600160a01b0384163b15610dca5760405163f23a6e6160e01b81526001600160a01b0385169063f23a6e61906113549089908990889088908890600401611bfc565b6020604051808303816000875af192505050801561138f575060408051601f3d908101601f1916820190925261138c91810190611b39565b60015b61139b576111aa611b56565b6001600160e01b0319811663f23a6e6160e01b146110c65760405162461bcd60e51b815260206004820152602860248201527f455243313135353a204552433131353552656365697665722072656a656374656044820152676420746f6b656e7360c01b6064820152608401610307565b80356001600160a01b038116811461142357600080fd5b919050565b6000806040838503121561143b57600080fd5b6114448361140c565b946020939093013593505050565b6001600160e01b03198116811461087c57600080fd5b60006020828403121561147a57600080fd5b813561148581611452565b9392505050565b60006020828403121561149e57600080fd5b5035919050565b6000815180845260005b818110156114cb576020818501810151868301820152016114af565b818111156114dd576000602083870101525b50601f01601f19169290920160200192915050565b60208152600061148560208301846114a5565b634e487b7160e01b600052604160045260246000fd5b601f8201601f1916810167ffffffffffffffff8111828210171561154157611541611505565b6040525050565b600067ffffffffffffffff82111561156257611562611505565b5060051b60200190565b600082601f83011261157d57600080fd5b8135602061158a82611548565b604051611597828261151b565b83815260059390931b85018201928281019150868411156115b757600080fd5b8286015b848110156115d257803583529183019183016115bb565b509695505050505050565b600082601f8301126115ee57600080fd5b813567ffffffffffffffff81111561160857611608611505565b60405161161f601f8301601f19166020018261151b565b81815284602083860101111561163457600080fd5b816020850160208301376000918101602001919091529392505050565b6000806000806080858703121561166757600080fd5b6116708561140c565b9350602085013567ffffffffffffffff8082111561168d57600080fd5b6116998883890161156c565b945060408701359150808211156116af57600080fd5b6116bb8883890161156c565b935060608701359150808211156116d157600080fd5b506116de878288016115dd565b91505092959194509250565b6000806000806080858703121561170057600080fd5b6117098561140c565b93506020850135925060408501359150606085013567ffffffffffffffff81111561173357600080fd5b6116de878288016115dd565b6000806040838503121561175257600080fd5b50508035926020909101359150565b600080600080600060a0868803121561177957600080fd5b6117828661140c565b94506117906020870161140c565b9350604086013567ffffffffffffffff808211156117ad57600080fd5b6117b989838a0161156c565b945060608801359150808211156117cf57600080fd5b6117db89838a0161156c565b935060808801359150808211156117f157600080fd5b506117fe888289016115dd565b9150509295509295909350565b6000806040838503121561181e57600080fd5b823567ffffffffffffffff8082111561183657600080fd5b818501915085601f83011261184a57600080fd5b8135602061185782611548565b604051611864828261151b565b83815260059390931b850182019282810191508984111561188457600080fd5b948201945b838610156118a95761189a8661140c565b82529482019490820190611889565b965050860135925050808211156118bf57600080fd5b506118cc8582860161156c565b9150509250929050565b600081518084526020808501945080840160005b83811015611906578151875295820195908201906001016118ea565b509495945050505050565b60208152600061148560208301846118d6565b6000806040838503121561193757600080fd5b6119408361140c565b91506020830135801515811461195557600080fd5b809150509250929050565b6000806040838503121561197357600080fd5b61197c8361140c565b915061198a6020840161140c565b90509250929050565b600080600080600060a086880312156119ab57600080fd5b6119b48661140c565b94506119c26020870161140c565b93506040860135925060608601359150608086013567ffffffffffffffff8111156119ec57600080fd5b6117fe888289016115dd565b600060208284031215611a0a57600080fd5b6114858261140c565b600181811c90821680611a2757607f821691505b60208210811415611a4857634e487b7160e01b600052602260045260246000fd5b50919050565b634e487b7160e01b600052603260045260246000fd5b634e487b7160e01b600052601160045260246000fd5b6000600019821415611a8e57611a8e611a64565b5060010190565b60008219821115611aa857611aa8611a64565b500190565b604081526000611ac060408301856118d6565b8281036020840152611ad281856118d6565b95945050505050565b60006001600160a01b03808816835280871660208401525060a06040830152611b0760a08301866118d6565b8281036060840152611b1981866118d6565b90508281036080840152611b2d81856114a5565b98975050505050505050565b600060208284031215611b4b57600080fd5b815161148581611452565b600060033d1115611b6f5760046000803e5060005160e01c5b90565b600060443d1015611b805790565b6040516003193d81016004833e81513d67ffffffffffffffff8160248401118184111715611bb057505050505090565b8285019150815181811115611bc85750505050505090565b843d8701016020828501011115611be25750505050505090565b611bf16020828601018761151b565b509095945050505050565b60006001600160a01b03808816835280871660208401525084604083015283606083015260a06080830152611c3460a08301846114a5565b97965050505050505056fea26469706673582212207aa619be136e0d94b2e4b6261e9860668f05914328e404ff96ad804774c9c00964736f6c634300080b0033",
  "immutableReferences": {},
  "source": "// SPDX-License-Identifier: MIT\n\npragma solidity ^0.8.0;\n\nimport \"@openzeppelin/contracts/token/ERC1155/ERC1155.sol\";\nimport \"@openzeppelin/contracts/utils/Context.sol\";\nimport \"@openzeppelin/contracts/utils/Counters.sol\";\nimport \"@openzeppelin/contracts/utils/cryptography/ECDSA.sol\";\nimport \"@openzeppelin/contracts/access/Ownable.sol\";\nimport './ERC2981/ERC2981PerTokenRoyalties.sol';\n\n\n\ncontract BCANFT1155RoyaltiesFactory is ERC1155, Ownable ,ERC2981PerTokenRoyalties{\n    constructor(string memory uri_,uint256 royalAmount, address owner) ERC1155(uri_) {\n        _setTokenRoyalty(owner, royalAmount);\n    }\n\n    function supportsInterface(bytes4 interfaceId)\n        public\n        view\n        virtual\n        override(ERC1155, ERC2981Base)\n        returns (bool)\n    {\n        return super.supportsInterface(interfaceId);\n    }\n    function mintTo(address to, uint256 id, uint256 amount,bytes memory data) public onlyOwner {\n        _mint(to, id, amount, data);\n        // if (royaltyValue > 0) {\n        //     _setTokenRoyalty(id, to, royaltyValue);\n        // }\n    }\n\n    function mintBatch(address to, uint256[] memory ids, uint256[] memory amounts, \n    bytes memory data) public onlyOwner {\n        _mintBatch(to, ids, amounts, data);\n    }\n}\n",
  "sourcePath": "/Users/piewer/Desktop/bca_nft_market/contracts/BCANFT1155RoyaltiesFactory.sol",
  "compiler": {
    "name": "solc",
    "version": "0.8.11+commit.d7f03943.Emscripten.clang"
  },
  "schemaVersion": "3.4.4",
  "updatedAt": "2022-01-23T11:30:10.416Z",
  "devdoc": {
    "kind": "dev",
    "methods": {
      "balanceOf(address,uint256)": {
        "details": "See {IERC1155-balanceOf}. Requirements: - `account` cannot be the zero address."
      },
      "balanceOfBatch(address[],uint256[])": {
        "details": "See {IERC1155-balanceOfBatch}. Requirements: - `accounts` and `ids` must have the same length."
      },
      "isApprovedForAll(address,address)": {
        "details": "See {IERC1155-isApprovedForAll}."
      },
      "owner()": {
        "details": "Returns the address of the current owner."
      },
      "renounceOwnership()": {
        "details": "Leaves the contract without owner. It will not be possible to call `onlyOwner` functions anymore. Can only be called by the current owner. NOTE: Renouncing ownership will leave the contract without an owner, thereby removing any functionality that is only available to the owner."
      },
      "safeBatchTransferFrom(address,address,uint256[],uint256[],bytes)": {
        "details": "See {IERC1155-safeBatchTransferFrom}."
      },
      "safeTransferFrom(address,address,uint256,uint256,bytes)": {
        "details": "See {IERC1155-safeTransferFrom}."
      },
      "setApprovalForAll(address,bool)": {
        "details": "See {IERC1155-setApprovalForAll}."
      },
      "transferOwnership(address)": {
        "details": "Transfers ownership of the contract to a new account (`newOwner`). Can only be called by the current owner."
      },
      "uri(uint256)": {
        "details": "See {IERC1155MetadataURI-uri}. This implementation returns the same URI for *all* token types. It relies on the token type ID substitution mechanism https://eips.ethereum.org/EIPS/eip-1155#metadata[defined in the EIP]. Clients calling this function must replace the `\\{id\\}` substring with the actual token type ID."
      }
    },
    "version": 1
  },
  "userdoc": {
    "kind": "user",
    "methods": {},
    "version": 1
  }
}